{
  "contractName": "SafeMath",
  "abi": [
    {
      "constant": true,
      "inputs": [],
      "name": "MAX_UINT256",
      "outputs": [
        {
          "name": "",
          "type": "uint256"
        }
      ],
      "payable": false,
      "stateMutability": "view",
      "type": "function"
    }
  ],
  "bytecode": "0x6080604052348015600f57600080fd5b5060bc8061001e6000396000f300608060405260043610603f576000357c0100000000000000000000000000000000000000000000000000000000900463ffffffff16806333a581d2146044575b600080fd5b348015604f57600080fd5b506056606c565b6040518082815260200191505060405180910390f35b7fffffffffffffffffffffffffffffffffffffffffffffffffffffffffffffffff815600a165627a7a72305820d5a6299f9578a58ff1d04fc2ea2fb172af7472de2693b9142d949e5d787fd5a90029",
  "source": "pragma solidity ^0.4.9;\n \n /* https://github.com/LykkeCity/EthereumApiDotNetCore/blob/master/src/ContractBuilder/contracts/token/SafeMath.sol */\ncontract SafeMath {\n    uint256 constant public MAX_UINT256 =\n    0xFFFFFFFFFFFFFFFFFFFFFFFFFFFFFFFFFFFFFFFFFFFFFFFFFFFFFFFFFFFFFFFF;\n\n    function safeAdd(uint256 x, uint256 y) constant internal returns (uint256 z) {\n        if (x > MAX_UINT256 - y) throw;\n        return x + y;\n    }\n\n    function safeSub(uint256 x, uint256 y) constant internal returns (uint256 z) {\n        if (x < y) throw;\n        return x - y;\n    }\n\n    function safeMul(uint256 x, uint256 y) constant internal returns (uint256 z) {\n        if (y == 0) return 0;\n        if (x > MAX_UINT256 / y) throw;\n        return x * y;\n    }\n}\n\n contract ContractReceiver {\n    function tokenFallback(address _from, uint _value, bytes _data);\n}\n \ncontract ERC223Token is SafeMath {\n    \n  event Transfer(address indexed _from, address indexed _to, uint256 _value, bytes _data);\n\n  mapping(address => uint) balances;\n  \n  string public name    = \"Token\";\n  string public symbol  = \"TKN\";\n  uint8 public decimals = 18;\n  uint256 public totalSupply;\n  \n  function ERC223Token()\n  {\n      balances[0xdc8fE10C5e872e25Ac24dE310e60D88E4b7a22a1] = 3000000 * (10 ** decimals);\n      totalSupply = balances[0xdc8fE10C5e872e25Ac24dE310e60D88E4b7a22a1];\n  }\n  \n  \n  // Function to access name of token .\n  function name() constant returns (string _name) {\n      return name;\n  }\n  // Function to access symbol of token .\n  function symbol() constant returns (string _symbol) {\n      return symbol;\n  }\n  // Function to access decimals of token .\n  function decimals() constant returns (uint8 _decimals) {\n      return decimals;\n  }\n  // Function to access total supply of tokens .\n  function totalSupply() constant returns (uint256 _totalSupply) {\n      return totalSupply;\n  }\n  \n  \n  // Function that is called when a user or another contract wants to transfer funds .\n  function transfer(address _to, uint _value, bytes _data, string _custom_fallback) returns (bool success) {\n      \n    if(isContract(_to)) {\n        if (balanceOf(msg.sender) < _value) throw;\n        balances[msg.sender] = safeSub(balanceOf(msg.sender), _value);\n        balances[_to] = safeAdd(balanceOf(_to), _value);\n        assert(_to.call.value(0)(bytes4(sha3(_custom_fallback)), msg.sender, _value, _data));\n        Transfer(msg.sender, _to, _value, _data);\n        return true;\n    }\n    else {\n        return transferToAddress(_to, _value, _data);\n    }\n}\n  \n\n  // Function that is called when a user or another contract wants to transfer funds .\n  function transfer(address _to, uint _value, bytes _data) returns (bool success) {\n      \n    if(isContract(_to)) {\n        return transferToContract(_to, _value, _data);\n    }\n    else {\n        return transferToAddress(_to, _value, _data);\n    }\n}\n  \n  // Standard function transfer similar to ERC20 transfer with no _data .\n  // Added due to backwards compatibility reasons .\n  function transfer(address _to, uint _value) returns (bool success) {\n      \n    //standard function transfer similar to ERC20 transfer with no _data\n    //added due to backwards compatibility reasons\n    bytes memory empty;\n    if(isContract(_to)) {\n        return transferToContract(_to, _value, empty);\n    }\n    else {\n        return transferToAddress(_to, _value, empty);\n    }\n}\n\n//assemble the given address bytecode. If bytecode exists then the _addr is a contract.\n  function isContract(address _addr) private returns (bool is_contract) {\n      uint length;\n      assembly {\n            //retrieve the size of the code on target address, this needs assembly\n            length := extcodesize(_addr)\n      }\n      return (length>0);\n    }\n\n  //function that is called when transaction target is an address\n  function transferToAddress(address _to, uint _value, bytes _data) private returns (bool success) {\n    if (balanceOf(msg.sender) < _value) throw;\n    balances[msg.sender] = safeSub(balanceOf(msg.sender), _value);\n    balances[_to] = safeAdd(balanceOf(_to), _value);\n    Transfer(msg.sender, _to, _value, _data);\n    return true;\n  }\n  \n  //function that is called when transaction target is a contract\n  function transferToContract(address _to, uint _value, bytes _data) private returns (bool success) {\n    if (balanceOf(msg.sender) < _value) throw;\n    balances[msg.sender] = safeSub(balanceOf(msg.sender), _value);\n    balances[_to] = safeAdd(balanceOf(_to), _value);\n    ContractReceiver receiver = ContractReceiver(_to);\n    receiver.tokenFallback(msg.sender, _value, _data);\n    Transfer(msg.sender, _to, _value, _data);\n    return true;\n}\n\n\n  function balanceOf(address _owner) constant returns (uint balance) {\n    return balances[_owner];\n  }\n}",
  "sourcePath": "D:\\plan_A\\webstorm_projects\\truffle_01\\contracts\\ERC223Token.sol",
  "compiler": {
    "name": "solc",
    "version": "0.4.24+commit.e67f0147.Emscripten.clang"
  },
  "schemaVersion": "2.0.1",
  "updatedAt": "2018-11-21T08:54:49.643Z"
}